{
  "contractName": "FirstContract",
  "abi": [
    {
      "inputs": [],
      "name": "count",
      "outputs": [
        {
          "internalType": "uint256",
          "name": "",
          "type": "uint256"
        }
      ],
      "stateMutability": "view",
      "type": "function",
      "constant": true
    },
    {
      "inputs": [
        {
          "internalType": "uint256",
          "name": "_number",
          "type": "uint256"
        }
      ],
      "name": "addNumber",
      "outputs": [],
      "stateMutability": "nonpayable",
      "type": "function"
    },
    {
      "inputs": [
        {
          "internalType": "uint256",
          "name": "_number",
          "type": "uint256"
        }
      ],
      "name": "subtractNumber",
      "outputs": [],
      "stateMutability": "nonpayable",
      "type": "function"
    }
  ],
  "bytecode": "0x6080604052600a60005534801561001557600080fd5b50610113806100256000396000f3fe6080604052348015600f57600080fd5b5060043610603c5760003560e01c806306661abd146041578063695cb67a14605d578063fce68023146088575b600080fd5b604760b3565b6040518082815260200191505060405180910390f35b608660048036036020811015607157600080fd5b810190808035906020019092919050505060b9565b005b60b160048036036020811015609c57600080fd5b810190808035906020019092919050505060cb565b005b60005481565b80600080828254039250508190555050565b8060008082825401925050819055505056fea2646970667358221220abb746177cab86ca45996e2d9c9a182275e8fd34920ac18170f4e83d1e0de13c64736f6c63430007000033",
  "immutableReferences": {},
  "source": "// SPDX-License-Identifier: MIT\npragma solidity ^0.7.0;\n\ncontract FirstContract {\n    uint public count = 10;\n\n    function addNumber(uint _number) public {\n        count += _number;\n    }\n\n    function subtractNumber(uint _number) public {\n        count -= _number;\n    }\n}\n\n\n",
  "sourcePath": "/Users/ricardoteixeira/Documents/code/solidity/udemy_solidity_0.7/contracts/FirstContract.sol",
  "compiler": {
    "name": "solc",
    "version": "0.7.0+commit.9e61f92b.Emscripten.clang"
  },
  "schemaVersion": "3.3.4",
  "updatedAt": "2021-04-06T23:00:33.137Z",
  "networkType": "ethereum",
  "devdoc": {
    "kind": "dev",
    "methods": {},
    "version": 1
  },
  "userdoc": {
    "kind": "user",
    "methods": {},
    "version": 1
  }
}