{
  "contractName": "StructExample",
  "abi": [
    {
      "inputs": [],
      "name": "alice",
      "outputs": [
        {
          "internalType": "string",
          "name": "name",
          "type": "string"
        },
        {
          "internalType": "uint256",
          "name": "score",
          "type": "uint256"
        }
      ],
      "stateMutability": "view",
      "type": "function",
      "constant": true
    },
    {
      "inputs": [],
      "name": "bob",
      "outputs": [
        {
          "internalType": "string",
          "name": "name",
          "type": "string"
        },
        {
          "internalType": "uint256",
          "name": "score",
          "type": "uint256"
        }
      ],
      "stateMutability": "view",
      "type": "function",
      "constant": true
    },
    {
      "inputs": [],
      "name": "ric",
      "outputs": [
        {
          "internalType": "string",
          "name": "name",
          "type": "string"
        },
        {
          "internalType": "uint256",
          "name": "score",
          "type": "uint256"
        }
      ],
      "stateMutability": "view",
      "type": "function",
      "constant": true
    },
    {
      "inputs": [
        {
          "internalType": "uint256",
          "name": "_score",
          "type": "uint256"
        }
      ],
      "name": "updateBobScore",
      "outputs": [],
      "stateMutability": "nonpayable",
      "type": "function"
    },
    {
      "inputs": [],
      "name": "readBobScore",
      "outputs": [
        {
          "internalType": "uint256",
          "name": "",
          "type": "uint256"
        }
      ],
      "stateMutability": "view",
      "type": "function",
      "constant": true
    },
    {
      "inputs": [],
      "name": "bobDelete",
      "outputs": [],
      "stateMutability": "nonpayable",
      "type": "function"
    }
  ],
  "bytecode": "0x608060405260405180604001604052806040518060400160405280600381526020017f426f6200000000000000000000000000000000000000000000000000000000008152508152602001603281525060008082015181600001908051906020019061006c929190610177565b5060208201518160010155505060405180604001604052806040518060400160405280600581526020017f416c69636500000000000000000000000000000000000000000000000000000081525081526020016019815250600260008201518160000190805190602001906100e2929190610177565b5060208201518160010155505060405180604001604052806040518060400160405280600381526020017f52696300000000000000000000000000000000000000000000000000000000008152508152602001601e81525060046000820151816000019080519060200190610158929190610177565b5060208201518160010155505034801561017157600080fd5b50610214565b828054600181600116156101000203166002900490600052602060002090601f016020900481019282601f106101b857805160ff19168380011785556101e6565b828001600101855582156101e6579182015b828111156101e55782518255916020019190600101906101ca565b5b5090506101f391906101f7565b5090565b5b808211156102105760008160009055506001016101f8565b5090565b61052c806102236000396000f3fe608060405234801561001057600080fd5b50600436106100625760003560e01c8063330de8d2146100675780635fa1350414610071578063c09cec771461008f578063e37987a414610119578063f27be9dd14610147578063fb47e3a2146101d1575b600080fd5b61006f61025b565b005b61007961027a565b6040518082815260200191505060405180910390f35b610097610286565b6040518080602001838152602001828103825284818151815260200191508051906020019080838360005b838110156100dd5780820151818401526020810190506100c2565b50505050905090810190601f16801561010a5780820380516001836020036101000a031916815260200191505b50935050505060405180910390f35b6101456004803603602081101561012f57600080fd5b8101908080359060200190929190505050610330565b005b61014f61033d565b6040518080602001838152602001828103825284818151815260200191508051906020019080838360005b8381101561019557808201518184015260208101905061017a565b50505050905090810190601f1680156101c25780820380516001836020036101000a031916815260200191505b50935050505060405180910390f35b6101d96103e7565b6040518080602001838152602001828103825284818151815260200191508051906020019080838360005b8381101561021f578082015181840152602081019050610204565b50505050905090810190601f16801561024c5780820380516001836020036101000a031916815260200191505b50935050505060405180910390f35b60008060008201600061026e9190610491565b60018201600090555050565b60008060010154905090565b6000806000018054600181600116156101000203166002900480601f0160208091040260200160405190810160405280929190818152602001828054600181600116156101000203166002900480156103205780601f106102f557610100808354040283529160200191610320565b820191906000526020600020905b81548152906001019060200180831161030357829003601f168201915b5050505050908060010154905082565b8060006001018190555050565b6004806000018054600181600116156101000203166002900480601f0160208091040260200160405190810160405280929190818152602001828054600181600116156101000203166002900480156103d75780601f106103ac576101008083540402835291602001916103d7565b820191906000526020600020905b8154815290600101906020018083116103ba57829003601f168201915b5050505050908060010154905082565b6002806000018054600181600116156101000203166002900480601f0160208091040260200160405190810160405280929190818152602001828054600181600116156101000203166002900480156104815780601f1061045657610100808354040283529160200191610481565b820191906000526020600020905b81548152906001019060200180831161046457829003601f168201915b5050505050908060010154905082565b50805460018160011615610100020316600290046000825580601f106104b757506104d6565b601f0160209004906000526020600020908101906104d591906104d9565b5b50565b5b808211156104f25760008160009055506001016104da565b509056fea264697066735822122046bfd023b7bc1fe562317d2b65ac283641f9d6ab2a843a8dda6fb3cbc77b011164736f6c63430007000033",
  "immutableReferences": {},
  "source": "// SPDX-License-Identifier: MIT\npragma solidity ^0.7.0;\n\ncontract StructExample {\n\n    struct Player {\n        string name;\n        uint score;\n    }\n\n\n    // create struct\n    Player public bob = Player(\"Bob\",50);\n    Player public alice = Player(\"Alice\",25);\n    Player public ric = Player({\n        score: 30,\n        name: \"Ric\"\n    });\n\n    // update struct\n    function updateBobScore(uint _score) external {\n        bob.score = _score;\n    }\n\n    // read struct\n    function readBobScore() external view returns (uint) {\n        return bob.score;\n    }\n\n    // delete struct\n    function bobDelete() external {\n        delete bob;\n    }\n\n\n}",
  "sourcePath": "/Users/ricardoteixeira/Documents/code/solidity/udemy_solidity_0.7/contracts/StructExample.sol",
  "compiler": {
    "name": "solc",
    "version": "0.7.0+commit.9e61f92b.Emscripten.clang"
  },
  "schemaVersion": "3.3.4",
  "updatedAt": "2021-04-06T23:53:24.833Z",
  "networkType": "ethereum",
  "devdoc": {
    "kind": "dev",
    "methods": {},
    "version": 1
  },
  "userdoc": {
    "kind": "user",
    "methods": {},
    "version": 1
  }
}